{
  "contractName": "SimpleVote",
  "abi": [
    {
      "anonymous": false,
      "inputs": [
        {
          "indexed": true,
          "internalType": "address",
          "name": "voter",
          "type": "address"
        },
        {
          "indexed": false,
          "internalType": "string",
          "name": "candidate",
          "type": "string"
        },
        {
          "indexed": false,
          "internalType": "uint256",
          "name": "amountPaid",
          "type": "uint256"
        }
      ],
      "name": "Voted",
      "type": "event"
    },
    {
      "inputs": [
        {
          "internalType": "string",
          "name": "",
          "type": "string"
        }
      ],
      "name": "candidateVotes",
      "outputs": [
        {
          "internalType": "uint256",
          "name": "",
          "type": "uint256"
        }
      ],
      "stateMutability": "view",
      "type": "function",
      "constant": true
    },
    {
      "inputs": [
        {
          "internalType": "address",
          "name": "",
          "type": "address"
        }
      ],
      "name": "hasVoted",
      "outputs": [
        {
          "internalType": "bool",
          "name": "",
          "type": "bool"
        }
      ],
      "stateMutability": "view",
      "type": "function",
      "constant": true
    },
    {
      "inputs": [
        {
          "internalType": "address",
          "name": "",
          "type": "address"
        }
      ],
      "name": "voterPayments",
      "outputs": [
        {
          "internalType": "uint256",
          "name": "",
          "type": "uint256"
        }
      ],
      "stateMutability": "view",
      "type": "function",
      "constant": true
    },
    {
      "inputs": [
        {
          "internalType": "string",
          "name": "candidate",
          "type": "string"
        }
      ],
      "name": "vote",
      "outputs": [],
      "stateMutability": "payable",
      "type": "function",
      "payable": true
    },
    {
      "inputs": [
        {
          "internalType": "string",
          "name": "candidate",
          "type": "string"
        }
      ],
      "name": "getVotes",
      "outputs": [
        {
          "internalType": "uint256",
          "name": "",
          "type": "uint256"
        }
      ],
      "stateMutability": "view",
      "type": "function",
      "constant": true
    }
  ],
  "bytecode": "0x608060405234801561001057600080fd5b50610903806100206000396000f3fe6080604052600436106100495760003560e01c8062514d7a1461004e57806309eef43e1461008b578063805265e5146100c8578063fc36e15b14610105578063fec14d7214610121575b600080fd5b34801561005a57600080fd5b506100756004803603810190610070919061053e565b61015e565b60405161008291906105a0565b60405180910390f35b34801561009757600080fd5b506100b260048036038101906100ad9190610619565b61018c565b6040516100bf9190610661565b60405180910390f35b3480156100d457600080fd5b506100ef60048036038101906100ea919061053e565b6101ac565b6040516100fc91906105a0565b60405180910390f35b61011f600480360381019061011a919061053e565b6101d3565b005b34801561012d57600080fd5b5061014860048036038101906101439190610619565b6103cc565b60405161015591906105a0565b60405180910390f35b6000818051602081018201805184825260208301602085012081835280955050505050506000915090505481565b60016020528060005260406000206000915054906101000a900460ff1681565b600080826040516101bd91906106ed565b9081526020016040518091039020549050919050565b600160003373ffffffffffffffffffffffffffffffffffffffff1673ffffffffffffffffffffffffffffffffffffffff16815260200190815260200160002060009054906101000a900460ff1615610260576040517f08c379a000000000000000000000000000000000000000000000000000000000815260040161025790610761565b60405180910390fd5b662386f26fc100003410156102aa576040517f08c379a00000000000000000000000000000000000000000000000000000000081526004016102a1906107cd565b60405180910390fd5b6000816040516102ba91906106ed565b908152602001604051809103902060008154809291906102d99061081c565b919050555060018060003373ffffffffffffffffffffffffffffffffffffffff1673ffffffffffffffffffffffffffffffffffffffff16815260200190815260200160002060006101000a81548160ff02191690831515021790555034600260003373ffffffffffffffffffffffffffffffffffffffff1673ffffffffffffffffffffffffffffffffffffffff168152602001908152602001600020819055503373ffffffffffffffffffffffffffffffffffffffff167f35b4034b2bbe10bb07b21969c986794a6276a531bb155886a9f883bb5c9dc8e882346040516103c192919061089d565b60405180910390a250565b60026020528060005260406000206000915090505481565b6000604051905090565b600080fd5b600080fd5b600080fd5b600080fd5b6000601f19601f8301169050919050565b7f4e487b7100000000000000000000000000000000000000000000000000000000600052604160045260246000fd5b61044b82610402565b810181811067ffffffffffffffff8211171561046a57610469610413565b5b80604052505050565b600061047d6103e4565b90506104898282610442565b919050565b600067ffffffffffffffff8211156104a9576104a8610413565b5b6104b282610402565b9050602081019050919050565b82818337600083830152505050565b60006104e16104dc8461048e565b610473565b9050828152602081018484840111156104fd576104fc6103fd565b5b6105088482856104bf565b509392505050565b600082601f830112610525576105246103f8565b5b81356105358482602086016104ce565b91505092915050565b600060208284031215610554576105536103ee565b5b600082013567ffffffffffffffff811115610572576105716103f3565b5b61057e84828501610510565b91505092915050565b6000819050919050565b61059a81610587565b82525050565b60006020820190506105b56000830184610591565b92915050565b600073ffffffffffffffffffffffffffffffffffffffff82169050919050565b60006105e6826105bb565b9050919050565b6105f6816105db565b811461060157600080fd5b50565b600081359050610613816105ed565b92915050565b60006020828403121561062f5761062e6103ee565b5b600061063d84828501610604565b91505092915050565b60008115159050919050565b61065b81610646565b82525050565b60006020820190506106766000830184610652565b92915050565b600081519050919050565b600081905092915050565b60005b838110156106b0578082015181840152602081019050610695565b60008484015250505050565b60006106c78261067c565b6106d18185610687565b93506106e1818560208601610692565b80840191505092915050565b60006106f982846106bc565b915081905092915050565b600082825260208201905092915050565b7f596f75206861766520616c726561647920766f7465642e000000000000000000600082015250565b600061074b601783610704565b915061075682610715565b602082019050919050565b6000602082019050818103600083015261077a8161073e565b9050919050565b7f496e73756666696369656e742066756e647320746f20766f74652e0000000000600082015250565b60006107b7601b83610704565b91506107c282610781565b602082019050919050565b600060208201905081810360008301526107e6816107aa565b9050919050565b7f4e487b7100000000000000000000000000000000000000000000000000000000600052601160045260246000fd5b600061082782610587565b91507fffffffffffffffffffffffffffffffffffffffffffffffffffffffffffffffff8203610859576108586107ed565b5b600182019050919050565b600061086f8261067c565b6108798185610704565b9350610889818560208601610692565b61089281610402565b840191505092915050565b600060408201905081810360008301526108b78185610864565b90506108c66020830184610591565b939250505056fea26469706673582212206cfdbd41ebcf45cf61a9c64cfa83ad481d42a99feff249ddd6f4dcbb85a4f61a64736f6c63430008110033",
  "immutableReferences": {},
  "source": "\n\n// contract HelloWorld {\n//   string public message;\n\n//   constructor(string memory init_message) {\n//     message = init_message;\n//   }\n\n//   function sayMessage() public view returns (string memory) {\n//     return message;\n//   }\n\n//   function setMessage(string memory new_m) payable external {\n//     require(msg.value > 0.01 ether);\n//     message = new_m;\n//   }\n// }\n// // hello_instance.methods.setMessage('nonono').send({from: '0x0885b44b64f377f83AD66e461361Df765C4C2496', value:web3.utils.toWei('1.015')})\n\n// SPDX-License-Identifier: MIT\npragma solidity >=0.4.22 <0.9.0;\n\ncontract SimpleVote {\n    // Define candidates and their vote counts\n    mapping(string => uint256) public candidateVotes;\n\n    mapping(address => bool) public hasVoted;\n    mapping(address => uint256) public voterPayments;\n\n\n    // Event to log each vote\n    event Voted(address indexed voter, string candidate, uint256 amountPaid);\n\n    // Function to vote for a candidate\n    function vote(string memory candidate) public payable {\n        // Ensure the voter hasn't voted before\n        require(!hasVoted[msg.sender], \"You have already voted.\");\n\n        // Ensure the sent amount is at least 0.01 ETH\n        require(msg.value >= 0.01 ether, \"Insufficient funds to vote.\");\n\n        // Increase the vote count for the selected candidate\n        candidateVotes[candidate]++;\n\n        // Mark the voter as having voted\n        hasVoted[msg.sender] = true;\n\n        // Record the amount paid by the voter\n        voterPayments[msg.sender] = msg.value;\n\n        // Emit the Voted event\n        emit Voted(msg.sender, candidate, msg.value);\n    }\n\n    // Function to get the vote count for a candidate\n    function getVotes(string memory candidate) public view returns (uint256) {\n        return candidateVotes[candidate];\n    }\n}",
  "sourcePath": "C:\\Users\\20201348\\Documents\\FHV\\BCHAIN\\SimpleVote\\contracts\\SimpleVote.sol",
  "compiler": {
    "name": "solc",
    "version": "0.8.17+commit.8df45f5f.Emscripten.clang"
  },
  "schemaVersion": "3.4.16",
  "updatedAt": "2023-12-14T16:42:32.603Z",
  "networkType": "ethereum",
  "devdoc": {
    "kind": "dev",
    "methods": {},
    "version": 1
  },
  "userdoc": {
    "kind": "user",
    "methods": {},
    "version": 1
  }
}